{
  "_format": "hh-sol-artifact-1",
  "contractName": "TaskScheduling",
  "sourceName": "contracts/TaskSchedule.sol",
  "abi": [
    {
      "inputs": [
        {
          "internalType": "address",
          "name": "workerRegistryAddress",
          "type": "address"
        },
        {
          "internalType": "address",
          "name": "oracleAddress",
          "type": "address"
        }
      ],
      "stateMutability": "nonpayable",
      "type": "constructor"
    },
    {
      "anonymous": false,
      "inputs": [
        {
          "indexed": true,
          "internalType": "uint256",
          "name": "taskId",
          "type": "uint256"
        },
        {
          "indexed": true,
          "internalType": "address",
          "name": "workerAddress",
          "type": "address"
        },
        {
          "indexed": false,
          "internalType": "string",
          "name": "dockerImage",
          "type": "string"
        },
        {
          "indexed": false,
          "internalType": "enum TaskScheduling.TaskStatus",
          "name": "status",
          "type": "uint8"
        }
      ],
      "name": "TaskScheduled",
      "type": "event"
    },
    {
      "anonymous": false,
      "inputs": [
        {
          "indexed": true,
          "internalType": "uint256",
          "name": "taskId",
          "type": "uint256"
        },
        {
          "indexed": false,
          "internalType": "enum TaskScheduling.TaskStatus",
          "name": "status",
          "type": "uint8"
        }
      ],
      "name": "TaskStatusUpdated",
      "type": "event"
    },
    {
      "inputs": [
        {
          "internalType": "uint256",
          "name": "taskId",
          "type": "uint256"
        }
      ],
      "name": "fulfillTask",
      "outputs": [],
      "stateMutability": "nonpayable",
      "type": "function"
    },
    {
      "inputs": [
        {
          "internalType": "string",
          "name": "dockerImage",
          "type": "string"
        }
      ],
      "name": "scheduleTask",
      "outputs": [],
      "stateMutability": "nonpayable",
      "type": "function"
    },
    {
      "inputs": [],
      "name": "taskCounter",
      "outputs": [
        {
          "internalType": "uint256",
          "name": "",
          "type": "uint256"
        }
      ],
      "stateMutability": "view",
      "type": "function"
    },
    {
      "inputs": [
        {
          "internalType": "uint256",
          "name": "",
          "type": "uint256"
        }
      ],
      "name": "tasks",
      "outputs": [
        {
          "internalType": "address",
          "name": "workerAddress",
          "type": "address"
        },
        {
          "internalType": "address",
          "name": "creator",
          "type": "address"
        },
        {
          "internalType": "enum TaskScheduling.TaskStatus",
          "name": "status",
          "type": "uint8"
        },
        {
          "internalType": "string",
          "name": "dockerImage",
          "type": "string"
        }
      ],
      "stateMutability": "view",
      "type": "function"
    },
    {
      "inputs": [
        {
          "internalType": "uint256",
          "name": "taskId",
          "type": "uint256"
        },
        {
          "internalType": "enum TaskScheduling.TaskStatus",
          "name": "status",
          "type": "uint8"
        }
      ],
      "name": "updateTaskStatus",
      "outputs": [],
      "stateMutability": "nonpayable",
      "type": "function"
    }
  ],
  "bytecode": "0x60806040523480156200001157600080fd5b50604051620017c5380380620017c583398181016040528101906200003791906200012a565b816000806101000a81548173ffffffffffffffffffffffffffffffffffffffff021916908373ffffffffffffffffffffffffffffffffffffffff16021790555080600160006101000a81548173ffffffffffffffffffffffffffffffffffffffff021916908373ffffffffffffffffffffffffffffffffffffffff160217905550505062000171565b600080fd5b600073ffffffffffffffffffffffffffffffffffffffff82169050919050565b6000620000f282620000c5565b9050919050565b6200010481620000e5565b81146200011057600080fd5b50565b6000815190506200012481620000f9565b92915050565b60008060408385031215620001445762000143620000c0565b5b6000620001548582860162000113565b9250506020620001678582860162000113565b9150509250929050565b61164480620001816000396000f3fe608060405234801561001057600080fd5b50600436106100575760003560e01c80630c7dbbe31461005c57806358671730146100785780638d591034146100965780638d977672146100b2578063ab9b6811146100e5575b600080fd5b61007660048036038101906100719190610ae6565b610101565b005b61008061017c565b60405161008d9190610b22565b60405180910390f35b6100b060048036038101906100ab9190610c83565b610182565b005b6100cc60048036038101906100c79190610ae6565b61055a565b6040516100dc9493929190610e03565b60405180910390f35b6100ff60048036038101906100fa9190610e74565b61065f565b005b60016003600083815260200190815260200160002060010160146101000a81548160ff0219169083600181111561013b5761013a610d0d565b5b0217905550807f9a4f521400d1b2f610a5c4845f80b4d79e3ec73d18e977ac9e0b0e6e741ec85f60016040516101719190610eb4565b60405180910390a250565b60025481565b60008060009054906101000a900473ffffffffffffffffffffffffffffffffffffffff1673ffffffffffffffffffffffffffffffffffffffff16639ebab38f60006040518263ffffffff1660e01b81526004016101df9190610eea565b6020604051808303816000875af11580156101fe573d6000803e3d6000fd5b505050506040513d601f19601f820116820180604052508101906102229190610f31565b9050600073ffffffffffffffffffffffffffffffffffffffff168173ffffffffffffffffffffffffffffffffffffffff160361025d57600080fd5b600060405180608001604052808373ffffffffffffffffffffffffffffffffffffffff1681526020013373ffffffffffffffffffffffffffffffffffffffff168152602001600060018111156102b6576102b5610d0d565b5b8152602001848152509050600260008154809291906102d490610f8d565b91905055508060036000600254815260200190815260200160002060008201518160000160006101000a81548173ffffffffffffffffffffffffffffffffffffffff021916908373ffffffffffffffffffffffffffffffffffffffff16021790555060208201518160010160006101000a81548173ffffffffffffffffffffffffffffffffffffffff021916908373ffffffffffffffffffffffffffffffffffffffff16021790555060408201518160010160146101000a81548160ff021916908360018111156103a8576103a7610d0d565b5b021790555060608201518160020190816103c291906111e1565b509050506000600267ffffffffffffffff8111156103e3576103e2610b58565b5b60405190808252806020026020018201604052801561041657816020015b60608152602001906001900390816104015790505b509050838160008151811061042e5761042d6112b3565b5b60200260200101819052506104428361077d565b81600181518110610456576104556112b3565b5b6020026020010181905250600160009054906101000a900473ffffffffffffffffffffffffffffffffffffffff1673ffffffffffffffffffffffffffffffffffffffff16634c8f60a3826040518263ffffffff1660e01b81526004016104bc91906113ee565b6020604051808303816000875af11580156104db573d6000803e3d6000fd5b505050506040513d601f19601f820116820180604052508101906104ff9190611446565b508273ffffffffffffffffffffffffffffffffffffffff166002547ffb3ae93ae8899584a102d413e9e2cd6d29acac3b1645ceb9947e7a306967a9c386600060405161054c929190611473565b60405180910390a350505050565b60036020528060005260406000206000915090508060000160009054906101000a900473ffffffffffffffffffffffffffffffffffffffff16908060010160009054906101000a900473ffffffffffffffffffffffffffffffffffffffff16908060010160149054906101000a900460ff16908060020180546105dc90611004565b80601f016020809104026020016040519081016040528092919081815260200182805461060890611004565b80156106555780601f1061062a57610100808354040283529160200191610655565b820191906000526020600020905b81548152906001019060200180831161063857829003601f168201915b5050505050905084565b3373ffffffffffffffffffffffffffffffffffffffff166003600084815260200190815260200160002060010160009054906101000a900473ffffffffffffffffffffffffffffffffffffffff1673ffffffffffffffffffffffffffffffffffffffff1614610703576040517f08c379a00000000000000000000000000000000000000000000000000000000081526004016106fa90611515565b60405180910390fd5b806003600084815260200190815260200160002060010160146101000a81548160ff0219169083600181111561073c5761073b610d0d565b5b0217905550817f9a4f521400d1b2f610a5c4845f80b4d79e3ec73d18e977ac9e0b0e6e741ec85f826040516107719190610eb4565b60405180910390a25050565b6060600082604051602001610792919061157d565b604051602081830303815290604052905060006040518060400160405280601081526020017f303132333435363738396162636465660000000000000000000000000000000081525090506000600283516107ed9190611598565b60026107f991906115da565b67ffffffffffffffff81111561081257610811610b58565b5b6040519080825280601f01601f1916602001820160405280156108445781602001600182028036833780820191505090505b5090507f30000000000000000000000000000000000000000000000000000000000000008160008151811061087c5761087b6112b3565b5b60200101907effffffffffffffffffffffffffffffffffffffffffffffffffffffffffffff1916908160001a9053507f7800000000000000000000000000000000000000000000000000000000000000816001815181106108e0576108df6112b3565b5b60200101907effffffffffffffffffffffffffffffffffffffffffffffffffffffffffffff1916908160001a90535060005b8351811015610a9057826004858381518110610931576109306112b3565b5b602001015160f81c60f81b7effffffffffffffffffffffffffffffffffffffffffffffffffffffffffffff1916901c60f81c60ff1681518110610977576109766112b3565b5b602001015160f81c60f81b826002836109909190611598565b600261099c91906115da565b815181106109ad576109ac6112b3565b5b60200101907effffffffffffffffffffffffffffffffffffffffffffffffffffffffffffff1916908160001a90535082600f60f81b8583815181106109f5576109f46112b3565b5b602001015160f81c60f81b1660f81c60ff1681518110610a1857610a176112b3565b5b602001015160f81c60f81b82600283610a319190611598565b6003610a3d91906115da565b81518110610a4e57610a4d6112b3565b5b60200101907effffffffffffffffffffffffffffffffffffffffffffffffffffffffffffff1916908160001a9053508080610a8890610f8d565b915050610912565b50809350505050919050565b6000604051905090565b600080fd5b600080fd5b6000819050919050565b610ac381610ab0565b8114610ace57600080fd5b50565b600081359050610ae081610aba565b92915050565b600060208284031215610afc57610afb610aa6565b5b6000610b0a84828501610ad1565b91505092915050565b610b1c81610ab0565b82525050565b6000602082019050610b376000830184610b13565b92915050565b600080fd5b600080fd5b6000601f19601f8301169050919050565b7f4e487b7100000000000000000000000000000000000000000000000000000000600052604160045260246000fd5b610b9082610b47565b810181811067ffffffffffffffff82111715610baf57610bae610b58565b5b80604052505050565b6000610bc2610a9c565b9050610bce8282610b87565b919050565b600067ffffffffffffffff821115610bee57610bed610b58565b5b610bf782610b47565b9050602081019050919050565b82818337600083830152505050565b6000610c26610c2184610bd3565b610bb8565b905082815260208101848484011115610c4257610c41610b42565b5b610c4d848285610c04565b509392505050565b600082601f830112610c6a57610c69610b3d565b5b8135610c7a848260208601610c13565b91505092915050565b600060208284031215610c9957610c98610aa6565b5b600082013567ffffffffffffffff811115610cb757610cb6610aab565b5b610cc384828501610c55565b91505092915050565b600073ffffffffffffffffffffffffffffffffffffffff82169050919050565b6000610cf782610ccc565b9050919050565b610d0781610cec565b82525050565b7f4e487b7100000000000000000000000000000000000000000000000000000000600052602160045260246000fd5b60028110610d4d57610d4c610d0d565b5b50565b6000819050610d5e82610d3c565b919050565b6000610d6e82610d50565b9050919050565b610d7e81610d63565b82525050565b600081519050919050565b600082825260208201905092915050565b60005b83811015610dbe578082015181840152602081019050610da3565b60008484015250505050565b6000610dd582610d84565b610ddf8185610d8f565b9350610def818560208601610da0565b610df881610b47565b840191505092915050565b6000608082019050610e186000830187610cfe565b610e256020830186610cfe565b610e326040830185610d75565b8181036060830152610e448184610dca565b905095945050505050565b60028110610e5c57600080fd5b50565b600081359050610e6e81610e4f565b92915050565b60008060408385031215610e8b57610e8a610aa6565b5b6000610e9985828601610ad1565b9250506020610eaa85828601610e5f565b9150509250929050565b6000602082019050610ec96000830184610d75565b92915050565b60008115159050919050565b610ee481610ecf565b82525050565b6000602082019050610eff6000830184610edb565b92915050565b610f0e81610cec565b8114610f1957600080fd5b50565b600081519050610f2b81610f05565b92915050565b600060208284031215610f4757610f46610aa6565b5b6000610f5584828501610f1c565b91505092915050565b7f4e487b7100000000000000000000000000000000000000000000000000000000600052601160045260246000fd5b6000610f9882610ab0565b91507fffffffffffffffffffffffffffffffffffffffffffffffffffffffffffffffff8203610fca57610fc9610f5e565b5b600182019050919050565b7f4e487b7100000000000000000000000000000000000000000000000000000000600052602260045260246000fd5b6000600282049050600182168061101c57607f821691505b60208210810361102f5761102e610fd5565b5b50919050565b60008190508160005260206000209050919050565b60006020601f8301049050919050565b600082821b905092915050565b6000600883026110977fffffffffffffffffffffffffffffffffffffffffffffffffffffffffffffffff8261105a565b6110a1868361105a565b95508019841693508086168417925050509392505050565b6000819050919050565b60006110de6110d96110d484610ab0565b6110b9565b610ab0565b9050919050565b6000819050919050565b6110f8836110c3565b61110c611104826110e5565b848454611067565b825550505050565b600090565b611121611114565b61112c8184846110ef565b505050565b5b8181101561115057611145600082611119565b600181019050611132565b5050565b601f8211156111955761116681611035565b61116f8461104a565b8101602085101561117e578190505b61119261118a8561104a565b830182611131565b50505b505050565b600082821c905092915050565b60006111b86000198460080261119a565b1980831691505092915050565b60006111d183836111a7565b9150826002028217905092915050565b6111ea82610d84565b67ffffffffffffffff81111561120357611202610b58565b5b61120d8254611004565b611218828285611154565b600060209050601f83116001811461124b5760008415611239578287015190505b61124385826111c5565b8655506112ab565b601f19841661125986611035565b60005b828110156112815784890151825560018201915060208501945060208101905061125c565b8683101561129e578489015161129a601f8916826111a7565b8355505b6001600288020188555050505b505050505050565b7f4e487b7100000000000000000000000000000000000000000000000000000000600052603260045260246000fd5b600081519050919050565b600082825260208201905092915050565b6000819050602082019050919050565b600082825260208201905092915050565b600061132a82610d84565b611334818561130e565b9350611344818560208601610da0565b61134d81610b47565b840191505092915050565b6000611364838361131f565b905092915050565b6000602082019050919050565b6000611384826112e2565b61138e81856112ed565b9350836020820285016113a0856112fe565b8060005b858110156113dc57848403895281516113bd8582611358565b94506113c88361136c565b925060208a019950506001810190506113a4565b50829750879550505050505092915050565b600060208201905081810360008301526114088184611379565b905092915050565b6000819050919050565b61142381611410565b811461142e57600080fd5b50565b6000815190506114408161141a565b92915050565b60006020828403121561145c5761145b610aa6565b5b600061146a84828501611431565b91505092915050565b6000604082019050818103600083015261148d8185610dca565b905061149c6020830184610d75565b9392505050565b7f4f6e6c79207461736b2063726561746f722063616e207570646174652073746160008201527f7475730000000000000000000000000000000000000000000000000000000000602082015250565b60006114ff602383610d8f565b915061150a826114a3565b604082019050919050565b6000602082019050818103600083015261152e816114f2565b9050919050565b60008160601b9050919050565b600061154d82611535565b9050919050565b600061155f82611542565b9050919050565b61157761157282610cec565b611554565b82525050565b60006115898284611566565b60148201915081905092915050565b60006115a382610ab0565b91506115ae83610ab0565b92508282026115bc81610ab0565b915082820484148315176115d3576115d2610f5e565b5b5092915050565b60006115e582610ab0565b91506115f083610ab0565b925082820190508082111561160857611607610f5e565b5b9291505056fea26469706673582212203a357931c57d75bfb0e248a13a2ea4a10deadd4f8862892c684eb1d020c6584964736f6c63430008130033",
  "linkReferences": {},
  "deployedLinkReferences": {}
}