{
  "_format": "hh-sol-artifact-1",
  "contractName": "WorkerRegistration",
  "sourceName": "contracts/WorkerRegistration.sol",
  "abi": [
    {
      "inputs": [
        {
          "internalType": "uint256",
          "name": "subscriptionId",
          "type": "uint256"
        }
      ],
      "stateMutability": "nonpayable",
      "type": "constructor"
    },
    {
      "inputs": [
        {
          "internalType": "address",
          "name": "have",
          "type": "address"
        },
        {
          "internalType": "address",
          "name": "want",
          "type": "address"
        }
      ],
      "name": "OnlyCoordinatorCanFulfill",
      "type": "error"
    },
    {
      "inputs": [
        {
          "internalType": "address",
          "name": "have",
          "type": "address"
        },
        {
          "internalType": "address",
          "name": "owner",
          "type": "address"
        },
        {
          "internalType": "address",
          "name": "coordinator",
          "type": "address"
        }
      ],
      "name": "OnlyOwnerOrCoordinator",
      "type": "error"
    },
    {
      "inputs": [],
      "name": "ZeroAddress",
      "type": "error"
    },
    {
      "anonymous": false,
      "inputs": [
        {
          "indexed": false,
          "internalType": "address",
          "name": "vrfCoordinator",
          "type": "address"
        }
      ],
      "name": "CoordinatorSet",
      "type": "event"
    },
    {
      "anonymous": false,
      "inputs": [
        {
          "indexed": true,
          "internalType": "address",
          "name": "from",
          "type": "address"
        },
        {
          "indexed": true,
          "internalType": "address",
          "name": "to",
          "type": "address"
        }
      ],
      "name": "OwnershipTransferRequested",
      "type": "event"
    },
    {
      "anonymous": false,
      "inputs": [
        {
          "indexed": true,
          "internalType": "address",
          "name": "from",
          "type": "address"
        },
        {
          "indexed": true,
          "internalType": "address",
          "name": "to",
          "type": "address"
        }
      ],
      "name": "OwnershipTransferred",
      "type": "event"
    },
    {
      "anonymous": false,
      "inputs": [
        {
          "indexed": true,
          "internalType": "address",
          "name": "workerAddress",
          "type": "address"
        }
      ],
      "name": "RandomWorkerSelected",
      "type": "event"
    },
    {
      "anonymous": false,
      "inputs": [
        {
          "indexed": false,
          "internalType": "uint256",
          "name": "requestId",
          "type": "uint256"
        },
        {
          "indexed": false,
          "internalType": "uint256[]",
          "name": "randomWords",
          "type": "uint256[]"
        }
      ],
      "name": "RequestFulfilled",
      "type": "event"
    },
    {
      "anonymous": false,
      "inputs": [
        {
          "indexed": false,
          "internalType": "uint256",
          "name": "requestId",
          "type": "uint256"
        }
      ],
      "name": "RequestSent",
      "type": "event"
    },
    {
      "anonymous": false,
      "inputs": [
        {
          "indexed": true,
          "internalType": "address",
          "name": "workerAddress",
          "type": "address"
        },
        {
          "indexed": false,
          "internalType": "string",
          "name": "memoryInfo",
          "type": "string"
        },
        {
          "indexed": false,
          "internalType": "string",
          "name": "cpuCores",
          "type": "string"
        },
        {
          "indexed": false,
          "internalType": "string",
          "name": "storageInfo",
          "type": "string"
        }
      ],
      "name": "WorkerRegistered",
      "type": "event"
    },
    {
      "inputs": [],
      "name": "acceptOwnership",
      "outputs": [],
      "stateMutability": "nonpayable",
      "type": "function"
    },
    {
      "inputs": [],
      "name": "callbackGasLimit",
      "outputs": [
        {
          "internalType": "uint32",
          "name": "",
          "type": "uint32"
        }
      ],
      "stateMutability": "view",
      "type": "function"
    },
    {
      "inputs": [
        {
          "internalType": "uint256",
          "name": "_requestId",
          "type": "uint256"
        }
      ],
      "name": "getRequestStatus",
      "outputs": [
        {
          "internalType": "bool",
          "name": "fulfilled",
          "type": "bool"
        },
        {
          "internalType": "uint256[]",
          "name": "randomWords",
          "type": "uint256[]"
        }
      ],
      "stateMutability": "view",
      "type": "function"
    },
    {
      "inputs": [],
      "name": "getWorkerCount",
      "outputs": [
        {
          "internalType": "uint256",
          "name": "",
          "type": "uint256"
        }
      ],
      "stateMutability": "view",
      "type": "function"
    },
    {
      "inputs": [
        {
          "internalType": "uint256",
          "name": "index",
          "type": "uint256"
        }
      ],
      "name": "getWorkerDetails",
      "outputs": [
        {
          "internalType": "address",
          "name": "",
          "type": "address"
        },
        {
          "internalType": "string",
          "name": "",
          "type": "string"
        },
        {
          "internalType": "string",
          "name": "",
          "type": "string"
        },
        {
          "internalType": "string",
          "name": "",
          "type": "string"
        },
        {
          "internalType": "bool",
          "name": "",
          "type": "bool"
        }
      ],
      "stateMutability": "view",
      "type": "function"
    },
    {
      "inputs": [],
      "name": "keyHash",
      "outputs": [
        {
          "internalType": "bytes32",
          "name": "",
          "type": "bytes32"
        }
      ],
      "stateMutability": "view",
      "type": "function"
    },
    {
      "inputs": [],
      "name": "lastRequestId",
      "outputs": [
        {
          "internalType": "uint256",
          "name": "",
          "type": "uint256"
        }
      ],
      "stateMutability": "view",
      "type": "function"
    },
    {
      "inputs": [],
      "name": "numWords",
      "outputs": [
        {
          "internalType": "uint32",
          "name": "",
          "type": "uint32"
        }
      ],
      "stateMutability": "view",
      "type": "function"
    },
    {
      "inputs": [],
      "name": "owner",
      "outputs": [
        {
          "internalType": "address",
          "name": "",
          "type": "address"
        }
      ],
      "stateMutability": "view",
      "type": "function"
    },
    {
      "inputs": [],
      "name": "randomWorker",
      "outputs": [
        {
          "internalType": "address",
          "name": "",
          "type": "address"
        }
      ],
      "stateMutability": "view",
      "type": "function"
    },
    {
      "inputs": [
        {
          "internalType": "uint256",
          "name": "requestId",
          "type": "uint256"
        },
        {
          "internalType": "uint256[]",
          "name": "randomWords",
          "type": "uint256[]"
        }
      ],
      "name": "rawFulfillRandomWords",
      "outputs": [],
      "stateMutability": "nonpayable",
      "type": "function"
    },
    {
      "inputs": [
        {
          "internalType": "string",
          "name": "memoryInfo",
          "type": "string"
        },
        {
          "internalType": "string",
          "name": "cpuCores",
          "type": "string"
        },
        {
          "internalType": "string",
          "name": "storageInfo",
          "type": "string"
        }
      ],
      "name": "registerWorker",
      "outputs": [],
      "stateMutability": "nonpayable",
      "type": "function"
    },
    {
      "inputs": [],
      "name": "requestConfirmations",
      "outputs": [
        {
          "internalType": "uint16",
          "name": "",
          "type": "uint16"
        }
      ],
      "stateMutability": "view",
      "type": "function"
    },
    {
      "inputs": [
        {
          "internalType": "uint256",
          "name": "",
          "type": "uint256"
        },
        {
          "internalType": "uint256",
          "name": "",
          "type": "uint256"
        }
      ],
      "name": "requestIdToRandomWords",
      "outputs": [
        {
          "internalType": "uint256",
          "name": "",
          "type": "uint256"
        }
      ],
      "stateMutability": "view",
      "type": "function"
    },
    {
      "inputs": [
        {
          "internalType": "bool",
          "name": "enableNativePayment",
          "type": "bool"
        }
      ],
      "name": "requestRandomWorker",
      "outputs": [
        {
          "internalType": "address",
          "name": "",
          "type": "address"
        }
      ],
      "stateMutability": "nonpayable",
      "type": "function"
    },
    {
      "inputs": [
        {
          "internalType": "uint256",
          "name": "",
          "type": "uint256"
        }
      ],
      "name": "s_requests",
      "outputs": [
        {
          "internalType": "bool",
          "name": "fulfilled",
          "type": "bool"
        },
        {
          "internalType": "bool",
          "name": "exists",
          "type": "bool"
        }
      ],
      "stateMutability": "view",
      "type": "function"
    },
    {
      "inputs": [],
      "name": "s_subscriptionId",
      "outputs": [
        {
          "internalType": "uint256",
          "name": "",
          "type": "uint256"
        }
      ],
      "stateMutability": "view",
      "type": "function"
    },
    {
      "inputs": [],
      "name": "s_vrfCoordinator",
      "outputs": [
        {
          "internalType": "contract IVRFCoordinatorV2Plus",
          "name": "",
          "type": "address"
        }
      ],
      "stateMutability": "view",
      "type": "function"
    },
    {
      "inputs": [
        {
          "internalType": "address",
          "name": "_vrfCoordinator",
          "type": "address"
        }
      ],
      "name": "setCoordinator",
      "outputs": [],
      "stateMutability": "nonpayable",
      "type": "function"
    },
    {
      "inputs": [
        {
          "internalType": "address",
          "name": "to",
          "type": "address"
        }
      ],
      "name": "transferOwnership",
      "outputs": [],
      "stateMutability": "nonpayable",
      "type": "function"
    },
    {
      "inputs": [
        {
          "internalType": "uint256",
          "name": "",
          "type": "uint256"
        }
      ],
      "name": "workers",
      "outputs": [
        {
          "internalType": "address",
          "name": "workerAddress",
          "type": "address"
        },
        {
          "internalType": "string",
          "name": "memoryInfo",
          "type": "string"
        },
        {
          "internalType": "string",
          "name": "cpuCores",
          "type": "string"
        },
        {
          "internalType": "string",
          "name": "storageInfo",
          "type": "string"
        },
        {
          "internalType": "bool",
          "name": "isActive",
          "type": "bool"
        }
      ],
      "stateMutability": "view",
      "type": "function"
    }
  ],
  "bytecode": "0x60806040527f787d74caea10b2b357790d5b5247c2f63d1d91572a9846f780606e4d953677ae60001b600555620186a0600660006101000a81548163ffffffff021916908363ffffffff1602179055506003600660046101000a81548161ffff021916908361ffff16021790555060016006806101000a81548163ffffffff021916908363ffffffff1602179055503480156200009b57600080fd5b5060405162002f2438038062002f248339818101604052810190620000c19190620003fb565b739ddfaca8183c41ad55329bdeed9f6a8d53168b1b338060008073ffffffffffffffffffffffffffffffffffffffff168273ffffffffffffffffffffffffffffffffffffffff16036200014b576040517f08c379a000000000000000000000000000000000000000000000000000000000815260040162000142906200048e565b60405180910390fd5b816000806101000a81548173ffffffffffffffffffffffffffffffffffffffff021916908373ffffffffffffffffffffffffffffffffffffffff160217905550600073ffffffffffffffffffffffffffffffffffffffff168173ffffffffffffffffffffffffffffffffffffffff1614620001d257620001d1816200028c60201b60201c565b5b505050600073ffffffffffffffffffffffffffffffffffffffff168173ffffffffffffffffffffffffffffffffffffffff16036200023c576040517fd92e233d00000000000000000000000000000000000000000000000000000000815260040160405180910390fd5b80600260006101000a81548173ffffffffffffffffffffffffffffffffffffffff021916908373ffffffffffffffffffffffffffffffffffffffff16021790555050806007819055505062000522565b3373ffffffffffffffffffffffffffffffffffffffff168173ffffffffffffffffffffffffffffffffffffffff1603620002fd576040517f08c379a0000000000000000000000000000000000000000000000000000000008152600401620002f49062000500565b60405180910390fd5b80600160006101000a81548173ffffffffffffffffffffffffffffffffffffffff021916908373ffffffffffffffffffffffffffffffffffffffff1602179055508073ffffffffffffffffffffffffffffffffffffffff1660008054906101000a900473ffffffffffffffffffffffffffffffffffffffff1673ffffffffffffffffffffffffffffffffffffffff167fed8889f560326eb138920d842192f0eb3dd22b4f139c87a2c57538e05bae127860405160405180910390a350565b600080fd5b6000819050919050565b620003d581620003c0565b8114620003e157600080fd5b50565b600081519050620003f581620003ca565b92915050565b600060208284031215620004145762000413620003bb565b5b60006200042484828501620003e4565b91505092915050565b600082825260208201905092915050565b7f43616e6e6f7420736574206f776e657220746f207a65726f0000000000000000600082015250565b6000620004766018836200042d565b915062000483826200043e565b602082019050919050565b60006020820190508181036000830152620004a98162000467565b9050919050565b7f43616e6e6f74207472616e7366657220746f2073656c66000000000000000000600082015250565b6000620004e86017836200042d565b9150620004f582620004b0565b602082019050919050565b600060208201905081810360008301526200051b81620004d9565b9050919050565b6129f280620005326000396000f3fe608060405234801561001057600080fd5b50600436106101375760003560e01c80638da5cb5b116100b8578063a168fa891161007c578063a168fa891461031e578063b0fb162f1461034f578063d8a4676f1461036d578063f1a22dc21461039e578063f2fde38b146103d2578063fc2a88c3146103ee57610137565b80638da5cb5b146102785780638ea981171461029657806390d9b22d146102b25780639ebab38f146102d05780639eccacf61461030057610137565b806374e001ca116100ff57806374e001ca146101ce57806379ba5097146102025780637ccfd7fc1461020c5780638ac000211461022a5780638bffa1f81461024857610137565b80631fe543e31461013c57806324f746971461015857806344cd8e31146101765780634d7599f11461019257806361728f39146101b0575b600080fd5b610156600480360381019061015191906119ae565b61040c565b005b6101606104d2565b60405161016d9190611a2d565b60405180910390f35b610190600480360381019061018b9190611b89565b6104e8565b005b61019a610666565b6040516101a79190611c3f565b60405180910390f35b6101b8610673565b6040516101c59190611c73565b60405180910390f35b6101e860048036038101906101e39190611c8e565b610679565b6040516101f9959493929190611d96565b60405180910390f35b61020a61094e565b005b610214610ae3565b6040516102219190611a2d565b60405180910390f35b610232610af7565b60405161023f9190611c3f565b60405180910390f35b610262600480360381019061025d9190611dfe565b610afd565b60405161026f9190611c3f565b60405180910390f35b610280610b2e565b60405161028d9190611e3e565b60405180910390f35b6102b060048036038101906102ab9190611e85565b610b57565b005b6102ba610d38565b6040516102c79190611e3e565b60405180910390f35b6102ea60048036038101906102e59190611ede565b610d5e565b6040516102f79190611e3e565b60405180910390f35b610308611019565b6040516103159190611f6a565b60405180910390f35b61033860048036038101906103339190611c8e565b61103f565b604051610346929190611f85565b60405180910390f35b61035761107d565b6040516103649190611fcb565b60405180910390f35b61038760048036038101906103829190611c8e565b611091565b6040516103959291906120a4565b60405180910390f35b6103b860048036038101906103b39190611c8e565b6111bc565b6040516103c9959493929190611d96565b60405180910390f35b6103ec60048036038101906103e79190611e85565b6113c7565b005b6103f66113db565b6040516104039190611c3f565b60405180910390f35b600260009054906101000a900473ffffffffffffffffffffffffffffffffffffffff1673ffffffffffffffffffffffffffffffffffffffff163373ffffffffffffffffffffffffffffffffffffffff16146104c25733600260009054906101000a900473ffffffffffffffffffffffffffffffffffffffff166040517f1cf993f40000000000000000000000000000000000000000000000000000000081526004016104b99291906120d4565b60405180910390fd5b6104cd8383836113e1565b505050565b600660009054906101000a900463ffffffff1681565b60006040518060a001604052803373ffffffffffffffffffffffffffffffffffffffff168152602001858152602001848152602001838152602001600115158152509050600381908060018154018082558091505060019003906000526020600020906005020160009091909190915060008201518160000160006101000a81548173ffffffffffffffffffffffffffffffffffffffff021916908373ffffffffffffffffffffffffffffffffffffffff16021790555060208201518160010190816105b491906122ff565b5060408201518160020190816105ca91906122ff565b5060608201518160030190816105e091906122ff565b5060808201518160040160006101000a81548160ff021916908315150217905550505061060d6000610d5e565b503373ffffffffffffffffffffffffffffffffffffffff167f125022b4567d9cd32886176533d038134e2c4f3467b4596ad8c67f92569a4611858585604051610658939291906123d1565b60405180910390a250505050565b6000600380549050905090565b60055481565b60006060806060600060038054905086106106c9576040517f08c379a00000000000000000000000000000000000000000000000000000000081526004016106c090612469565b60405180910390fd5b6000600387815481106106df576106de612489565b5b90600052602060002090600502016040518060a00160405290816000820160009054906101000a900473ffffffffffffffffffffffffffffffffffffffff1673ffffffffffffffffffffffffffffffffffffffff1673ffffffffffffffffffffffffffffffffffffffff16815260200160018201805461075e9061212c565b80601f016020809104026020016040519081016040528092919081815260200182805461078a9061212c565b80156107d75780601f106107ac576101008083540402835291602001916107d7565b820191906000526020600020905b8154815290600101906020018083116107ba57829003601f168201915b505050505081526020016002820180546107f09061212c565b80601f016020809104026020016040519081016040528092919081815260200182805461081c9061212c565b80156108695780601f1061083e57610100808354040283529160200191610869565b820191906000526020600020905b81548152906001019060200180831161084c57829003601f168201915b505050505081526020016003820180546108829061212c565b80601f01602080910402602001604051908101604052809291908181526020018280546108ae9061212c565b80156108fb5780601f106108d0576101008083540402835291602001916108fb565b820191906000526020600020905b8154815290600101906020018083116108de57829003601f168201915b505050505081526020016004820160009054906101000a900460ff161515151581525050905080600001518160200151826040015183606001518460800151955095509550955095505091939590929450565b600160009054906101000a900473ffffffffffffffffffffffffffffffffffffffff1673ffffffffffffffffffffffffffffffffffffffff163373ffffffffffffffffffffffffffffffffffffffff16146109de576040517f08c379a00000000000000000000000000000000000000000000000000000000081526004016109d590612504565b60405180910390fd5b60008060009054906101000a900473ffffffffffffffffffffffffffffffffffffffff169050336000806101000a81548173ffffffffffffffffffffffffffffffffffffffff021916908373ffffffffffffffffffffffffffffffffffffffff1602179055506000600160006101000a81548173ffffffffffffffffffffffffffffffffffffffff021916908373ffffffffffffffffffffffffffffffffffffffff1602179055503373ffffffffffffffffffffffffffffffffffffffff168173ffffffffffffffffffffffffffffffffffffffff167f8be0079c531659141344cd1fd0a4f28419497f9722a3daafe3b4186f6b6457e060405160405180910390a350565b60068054906101000a900463ffffffff1681565b60075481565b60096020528160005260406000208181548110610b1957600080fd5b90600052602060002001600091509150505481565b60008060009054906101000a900473ffffffffffffffffffffffffffffffffffffffff16905090565b610b5f610b2e565b73ffffffffffffffffffffffffffffffffffffffff163373ffffffffffffffffffffffffffffffffffffffff1614158015610be85750600260009054906101000a900473ffffffffffffffffffffffffffffffffffffffff1673ffffffffffffffffffffffffffffffffffffffff163373ffffffffffffffffffffffffffffffffffffffff1614155b15610c575733610bf6610b2e565b600260009054906101000a900473ffffffffffffffffffffffffffffffffffffffff166040517f061db9c1000000000000000000000000000000000000000000000000000000008152600401610c4e93929190612524565b60405180910390fd5b600073ffffffffffffffffffffffffffffffffffffffff168173ffffffffffffffffffffffffffffffffffffffff1603610cbd576040517fd92e233d00000000000000000000000000000000000000000000000000000000815260040160405180910390fd5b80600260006101000a81548173ffffffffffffffffffffffffffffffffffffffff021916908373ffffffffffffffffffffffffffffffffffffffff1602179055507fd1a6a14209a385a964d036e404cb5cfb71f4000cdb03c9366292430787261be681604051610d2d9190611e3e565b60405180910390a150565b600460009054906101000a900473ffffffffffffffffffffffffffffffffffffffff1681565b60008060038054905011610da7576040517f08c379a0000000000000000000000000000000000000000000000000000000008152600401610d9e906125a7565b60405180910390fd5b6000600260009054906101000a900473ffffffffffffffffffffffffffffffffffffffff1673ffffffffffffffffffffffffffffffffffffffff16639b1c385e6040518060c0016040528060055481526020016007548152602001600660049054906101000a900461ffff1661ffff168152602001600660009054906101000a900463ffffffff1663ffffffff16815260200160068054906101000a900463ffffffff1663ffffffff168152602001610e6f60405180602001604052808915158152506115f4565b8152506040518263ffffffff1660e01b8152600401610e8e91906126d2565b6020604051808303816000875af1158015610ead573d6000803e3d6000fd5b505050506040513d601f19601f82011682018060405250810190610ed19190612709565b90506040518060600160405280600015158152602001600115158152602001600067ffffffffffffffff811115610f0b57610f0a611a5e565b5b604051908082528060200260200182016040528015610f395781602001602082028036833780820191505090505b50815250600a600083815260200190815260200160002060008201518160000160006101000a81548160ff02191690831515021790555060208201518160000160016101000a81548160ff0219169083151502179055506040820151816001019080519060200190610fac929190611848565b50905050806008819055507f0cd21a41891ff04ecd9a8754bec97e2fb85d2a4e7694329d4dc364c796f23d0681604051610fe69190611c3f565b60405180910390a1600460009054906101000a900473ffffffffffffffffffffffffffffffffffffffff16915050919050565b600260009054906101000a900473ffffffffffffffffffffffffffffffffffffffff1681565b600a6020528060005260406000206000915090508060000160009054906101000a900460ff16908060000160019054906101000a900460ff16905082565b600660049054906101000a900461ffff1681565b60006060600a600084815260200190815260200160002060000160019054906101000a900460ff166110f8576040517f08c379a00000000000000000000000000000000000000000000000000000000081526004016110ef90612782565b60405180910390fd5b6000600a60008581526020019081526020016000206040518060600160405290816000820160009054906101000a900460ff161515151581526020016000820160019054906101000a900460ff161515151581526020016001820180548060200260200160405190810160405280929190818152602001828054801561119d57602002820191906000526020600020905b815481526020019060010190808311611189575b5050505050815250509050806000015181604001519250925050915091565b600381815481106111cc57600080fd5b90600052602060002090600502016000915090508060000160009054906101000a900473ffffffffffffffffffffffffffffffffffffffff16908060010180546112159061212c565b80601f01602080910402602001604051908101604052809291908181526020018280546112419061212c565b801561128e5780601f106112635761010080835404028352916020019161128e565b820191906000526020600020905b81548152906001019060200180831161127157829003601f168201915b5050505050908060020180546112a39061212c565b80601f01602080910402602001604051908101604052809291908181526020018280546112cf9061212c565b801561131c5780601f106112f15761010080835404028352916020019161131c565b820191906000526020600020905b8154815290600101906020018083116112ff57829003601f168201915b5050505050908060030180546113319061212c565b80601f016020809104026020016040519081016040528092919081815260200182805461135d9061212c565b80156113aa5780601f1061137f576101008083540402835291602001916113aa565b820191906000526020600020905b81548152906001019060200180831161138d57829003601f168201915b5050505050908060040160009054906101000a900460ff16905085565b6113cf61168c565b6113d88161171c565b50565b60085481565b600a600084815260200190815260200160002060000160019054906101000a900460ff16611444576040517f08c379a000000000000000000000000000000000000000000000000000000000815260040161143b90612782565b60405180910390fd5b6001600a600085815260200190815260200160002060000160006101000a81548160ff0219169083151502179055508181600a60008681526020019081526020016000206001019190611498929190611895565b507ffe2e2d779dba245964d4e3ef9b994be63856fd568bf7d3ca9e224755cb1bd54d8383836040516114cc9392919061280c565b60405180910390a16000600380549050838360008181106114f0576114ef612489565b5b90506020020135611501919061286d565b90506003818154811061151757611516612489565b5b906000526020600020906005020160000160009054906101000a900473ffffffffffffffffffffffffffffffffffffffff16600460006101000a81548173ffffffffffffffffffffffffffffffffffffffff021916908373ffffffffffffffffffffffffffffffffffffffff160217905550600460009054906101000a900473ffffffffffffffffffffffffffffffffffffffff1673ffffffffffffffffffffffffffffffffffffffff167fdfdb3f494544ff518df8930ab2dc46c1111985666f57f89b9a3338b14d21586d60405160405180910390a250505050565b60607f92fd13387c7fe7befbc38d303d6468778fb9731bc4583f17d92989c6fcfdeaaa8260405160240161162891906128c9565b604051602081830303815290604052907bffffffffffffffffffffffffffffffffffffffffffffffffffffffff19166020820180517bffffffffffffffffffffffffffffffffffffffffffffffffffffffff83818316178352505050509050919050565b60008054906101000a900473ffffffffffffffffffffffffffffffffffffffff1673ffffffffffffffffffffffffffffffffffffffff163373ffffffffffffffffffffffffffffffffffffffff161461171a576040517f08c379a000000000000000000000000000000000000000000000000000000000815260040161171190612930565b60405180910390fd5b565b3373ffffffffffffffffffffffffffffffffffffffff168173ffffffffffffffffffffffffffffffffffffffff160361178a576040517f08c379a00000000000000000000000000000000000000000000000000000000081526004016117819061299c565b60405180910390fd5b80600160006101000a81548173ffffffffffffffffffffffffffffffffffffffff021916908373ffffffffffffffffffffffffffffffffffffffff1602179055508073ffffffffffffffffffffffffffffffffffffffff1660008054906101000a900473ffffffffffffffffffffffffffffffffffffffff1673ffffffffffffffffffffffffffffffffffffffff167fed8889f560326eb138920d842192f0eb3dd22b4f139c87a2c57538e05bae127860405160405180910390a350565b828054828255906000526020600020908101928215611884579160200282015b82811115611883578251825591602001919060010190611868565b5b50905061189191906118e2565b5090565b8280548282559060005260206000209081019282156118d1579160200282015b828111156118d05782358255916020019190600101906118b5565b5b5090506118de91906118e2565b5090565b5b808211156118fb5760008160009055506001016118e3565b5090565b6000604051905090565b600080fd5b600080fd5b6000819050919050565b61192681611913565b811461193157600080fd5b50565b6000813590506119438161191d565b92915050565b600080fd5b600080fd5b600080fd5b60008083601f84011261196e5761196d611949565b5b8235905067ffffffffffffffff81111561198b5761198a61194e565b5b6020830191508360208202830111156119a7576119a6611953565b5b9250929050565b6000806000604084860312156119c7576119c6611909565b5b60006119d586828701611934565b935050602084013567ffffffffffffffff8111156119f6576119f561190e565b5b611a0286828701611958565b92509250509250925092565b600063ffffffff82169050919050565b611a2781611a0e565b82525050565b6000602082019050611a426000830184611a1e565b92915050565b600080fd5b6000601f19601f8301169050919050565b7f4e487b7100000000000000000000000000000000000000000000000000000000600052604160045260246000fd5b611a9682611a4d565b810181811067ffffffffffffffff82111715611ab557611ab4611a5e565b5b80604052505050565b6000611ac86118ff565b9050611ad48282611a8d565b919050565b600067ffffffffffffffff821115611af457611af3611a5e565b5b611afd82611a4d565b9050602081019050919050565b82818337600083830152505050565b6000611b2c611b2784611ad9565b611abe565b905082815260208101848484011115611b4857611b47611a48565b5b611b53848285611b0a565b509392505050565b600082601f830112611b7057611b6f611949565b5b8135611b80848260208601611b19565b91505092915050565b600080600060608486031215611ba257611ba1611909565b5b600084013567ffffffffffffffff811115611bc057611bbf61190e565b5b611bcc86828701611b5b565b935050602084013567ffffffffffffffff811115611bed57611bec61190e565b5b611bf986828701611b5b565b925050604084013567ffffffffffffffff811115611c1a57611c1961190e565b5b611c2686828701611b5b565b9150509250925092565b611c3981611913565b82525050565b6000602082019050611c546000830184611c30565b92915050565b6000819050919050565b611c6d81611c5a565b82525050565b6000602082019050611c886000830184611c64565b92915050565b600060208284031215611ca457611ca3611909565b5b6000611cb284828501611934565b91505092915050565b600073ffffffffffffffffffffffffffffffffffffffff82169050919050565b6000611ce682611cbb565b9050919050565b611cf681611cdb565b82525050565b600081519050919050565b600082825260208201905092915050565b60005b83811015611d36578082015181840152602081019050611d1b565b60008484015250505050565b6000611d4d82611cfc565b611d578185611d07565b9350611d67818560208601611d18565b611d7081611a4d565b840191505092915050565b60008115159050919050565b611d9081611d7b565b82525050565b600060a082019050611dab6000830188611ced565b8181036020830152611dbd8187611d42565b90508181036040830152611dd18186611d42565b90508181036060830152611de58185611d42565b9050611df46080830184611d87565b9695505050505050565b60008060408385031215611e1557611e14611909565b5b6000611e2385828601611934565b9250506020611e3485828601611934565b9150509250929050565b6000602082019050611e536000830184611ced565b92915050565b611e6281611cdb565b8114611e6d57600080fd5b50565b600081359050611e7f81611e59565b92915050565b600060208284031215611e9b57611e9a611909565b5b6000611ea984828501611e70565b91505092915050565b611ebb81611d7b565b8114611ec657600080fd5b50565b600081359050611ed881611eb2565b92915050565b600060208284031215611ef457611ef3611909565b5b6000611f0284828501611ec9565b91505092915050565b6000819050919050565b6000611f30611f2b611f2684611cbb565b611f0b565b611cbb565b9050919050565b6000611f4282611f15565b9050919050565b6000611f5482611f37565b9050919050565b611f6481611f49565b82525050565b6000602082019050611f7f6000830184611f5b565b92915050565b6000604082019050611f9a6000830185611d87565b611fa76020830184611d87565b9392505050565b600061ffff82169050919050565b611fc581611fae565b82525050565b6000602082019050611fe06000830184611fbc565b92915050565b600081519050919050565b600082825260208201905092915050565b6000819050602082019050919050565b61201b81611913565b82525050565b600061202d8383612012565b60208301905092915050565b6000602082019050919050565b600061205182611fe6565b61205b8185611ff1565b935061206683612002565b8060005b8381101561209757815161207e8882612021565b975061208983612039565b92505060018101905061206a565b5085935050505092915050565b60006040820190506120b96000830185611d87565b81810360208301526120cb8184612046565b90509392505050565b60006040820190506120e96000830185611ced565b6120f66020830184611ced565b9392505050565b7f4e487b7100000000000000000000000000000000000000000000000000000000600052602260045260246000fd5b6000600282049050600182168061214457607f821691505b602082108103612157576121566120fd565b5b50919050565b60008190508160005260206000209050919050565b60006020601f8301049050919050565b600082821b905092915050565b6000600883026121bf7fffffffffffffffffffffffffffffffffffffffffffffffffffffffffffffffff82612182565b6121c98683612182565b95508019841693508086168417925050509392505050565b60006121fc6121f76121f284611913565b611f0b565b611913565b9050919050565b6000819050919050565b612216836121e1565b61222a61222282612203565b84845461218f565b825550505050565b600090565b61223f612232565b61224a81848461220d565b505050565b5b8181101561226e57612263600082612237565b600181019050612250565b5050565b601f8211156122b3576122848161215d565b61228d84612172565b8101602085101561229c578190505b6122b06122a885612172565b83018261224f565b50505b505050565b600082821c905092915050565b60006122d6600019846008026122b8565b1980831691505092915050565b60006122ef83836122c5565b9150826002028217905092915050565b61230882611cfc565b67ffffffffffffffff81111561232157612320611a5e565b5b61232b825461212c565b612336828285612272565b600060209050601f8311600181146123695760008415612357578287015190505b61236185826122e3565b8655506123c9565b601f1984166123778661215d565b60005b8281101561239f5784890151825560018201915060208501945060208101905061237a565b868310156123bc57848901516123b8601f8916826122c5565b8355505b6001600288020188555050505b505050505050565b600060608201905081810360008301526123eb8186611d42565b905081810360208301526123ff8185611d42565b905081810360408301526124138184611d42565b9050949350505050565b7f576f726b657220696e646578206f7574206f6620626f756e6473000000000000600082015250565b6000612453601a83611d07565b915061245e8261241d565b602082019050919050565b6000602082019050818103600083015261248281612446565b9050919050565b7f4e487b7100000000000000000000000000000000000000000000000000000000600052603260045260246000fd5b7f4d7573742062652070726f706f736564206f776e657200000000000000000000600082015250565b60006124ee601683611d07565b91506124f9826124b8565b602082019050919050565b6000602082019050818103600083015261251d816124e1565b9050919050565b60006060820190506125396000830186611ced565b6125466020830185611ced565b6125536040830184611ced565b949350505050565b7f4e6f20776f726b65727320726567697374657265640000000000000000000000600082015250565b6000612591601583611d07565b915061259c8261255b565b602082019050919050565b600060208201905081810360008301526125c081612584565b9050919050565b6125d081611c5a565b82525050565b6125df81611fae565b82525050565b6125ee81611a0e565b82525050565b600081519050919050565b600082825260208201905092915050565b600061261b826125f4565b61262581856125ff565b9350612635818560208601611d18565b61263e81611a4d565b840191505092915050565b600060c08301600083015161266160008601826125c7565b5060208301516126746020860182612012565b50604083015161268760408601826125d6565b50606083015161269a60608601826125e5565b5060808301516126ad60808601826125e5565b5060a083015184820360a08601526126c58282612610565b9150508091505092915050565b600060208201905081810360008301526126ec8184612649565b905092915050565b6000815190506127038161191d565b92915050565b60006020828403121561271f5761271e611909565b5b600061272d848285016126f4565b91505092915050565b7f72657175657374206e6f7420666f756e64000000000000000000000000000000600082015250565b600061276c601183611d07565b915061277782612736565b602082019050919050565b6000602082019050818103600083015261279b8161275f565b9050919050565b600080fd5b82818337505050565b60006127bc8385611ff1565b93507f07ffffffffffffffffffffffffffffffffffffffffffffffffffffffffffffff8311156127ef576127ee6127a2565b5b6020830292506128008385846127a7565b82840190509392505050565b60006040820190506128216000830186611c30565b81810360208301526128348184866127b0565b9050949350505050565b7f4e487b7100000000000000000000000000000000000000000000000000000000600052601260045260246000fd5b600061287882611913565b915061288383611913565b9250826128935761289261283e565b5b828206905092915050565b6128a781611d7b565b82525050565b6020820160008201516128c3600085018261289e565b50505050565b60006020820190506128de60008301846128ad565b92915050565b7f4f6e6c792063616c6c61626c65206279206f776e657200000000000000000000600082015250565b600061291a601683611d07565b9150612925826128e4565b602082019050919050565b600060208201905081810360008301526129498161290d565b9050919050565b7f43616e6e6f74207472616e7366657220746f2073656c66000000000000000000600082015250565b6000612986601783611d07565b915061299182612950565b602082019050919050565b600060208201905081810360008301526129b581612979565b905091905056fea26469706673582212206035f14bd46c4c5f8b264bc45310c3191f7d3ca1b1cbf17caaf09432707f9aeb64736f6c63430008130033",
  "linkReferences": {},
  "deployedLinkReferences": {}
}